:1000000012C021C020C02FC21EC01DC01CC01BC0FA
:100010001AC019C018C017C016C015C014C013C02C
:1000200012C011C010C011241FBECFE5D4E0DEBF46
:10003000CDBF20E0A0E6B0E001C01D92A038B2071D
:10004000E1F751D224C4DCCFCF93DF93A19AB99AC0
:10005000BA9ABE9ABF9A8E9A8F9AC09AB89A909A74
:10006000919A929A939AAD9AE7E6F0E0CEE6D0E0C4
:10007000A6E7B0E08EE690E0119219921D92E81783
:10008000F907D1F780917D008D7F80937D0080916D
:100090007D008E7F80937D0080917D008B7F80939B
:1000A0007D00809175008E7F809375008091750032
:1000B0008D7F80937500809175008B7F8093750094
:1000C00080917500877F80937500809175008F7E89
:1000D00080937500809175008F7D80937500EEE7A9
:1000E000F0E080818E7F808380818D7F808380811E
:1000F000877F808380818B7F808380818F7E8083D8
:1001000080818F7D808380818F7B808380818F77CA
:100110008083EFE7F0E080818E7F808317B887B11E
:10012000806E87B986B1866886B985B58C6085BDD5
:100130008DE783BD89B7806889BF7894DF91CF91BF
:100140000895882369F0623529F0693539F0623401
:1001500099F402C0A99A0895C29A0895C19A08957F
:10016000623529F0693539F0623431F402C0A9985A
:100170000895C2980895C1980895CF93C62F90917D
:100180006300891720F0642F81E0DBDF03C0642F58
:1001900080E0D7DF809163008C1710F0109263002D
:1001A000CF910895369A3699FECF85B10895FADF3A
:1001B00090E0873D910524F062E580E0C2DF08957C
:1001C0008E3C91052CF042E564E682E0D6DF08958E
:1001D00042E56EE182E0D1DF0895EEE6F0E085E7EA
:1001E00090E0A6E7B0E021912D93E817F907D9F741
:1001F00080B3817080936E0080B3827080936F00B3
:1002000080B384708093700080B388708093710095
:1002100083B3807280937400E6E7F0E080E090E0C2
:1002200031E02191222351F0DC01A259BF4F2C91E2
:10023000211104C0DC01A959BF4F3C9301968730BE
:10024000910579F780916700882339F080917500D6
:100250008260809375001092670080916800882307
:1002600039F080917500816080937500109268006C
:1002700080916900882339F08091750082608093B5
:1002800075001092690080916A00882339F080918E
:10029000750081608093750010926A0080916D00F6
:1002A000882339F0EEE7F0E0808180688083109247
:1002B0006D00089590917D0092FF19C0811102C0D8
:1002C000969A01C0969894B584B58917E9F384B5D8
:1002D00094B5981304C0979A84B58917E1F3979859
:1002E00080917D008B7F80937D0081E0089580E088
:1002F0000895882311F0C0980895C09A0895FF9238
:100300000F931F93CF93DF93F82E8B01EA0181E0C7
:10031000F0DF21E0F21203C00115110529F4209746
:10032000A9F19D9907C041C081E0C4DF081B1109F4
:10033000D9F7F5CF80E0BEDFC81BD10939F19D990F
:10034000F9CF33C0809164008630E0F38091600083
:1003500090916100863094408CF481E0ABDF209175
:10036000600030916100A901480F511DCA015093EE
:10037000610040936000863094407CF380E0B9DFF8
:10038000EEE7F0E080818F77808324C0EEE7F0E035
:1003900080818064808380818D7F808380818B7F5A
:1003A000808380818F7E8083E9CFEEE7F0E08081DB
:1003B0008260808380818B7F808380818F7B80833C
:1003C00080818F7E80831092610010926000109275
:1003D0006400B8CFDF91CF911F910F91FF900895E6
:1003E0000F931F93CF93DF93EC0180916000909166
:1003F00061008C179D0764F481E05CDF2091600050
:1004000030916100280F311D30936100209360000E
:100410000091600010916100C017D10744F480E0A2
:1004200049DF081B1109109361000093600081E00F
:100430002091600030916100C217D30709F080E07D
:10044000DF91CF911F910F9108958C3419F085356C
:1004500021F006C0C69AC7980895C79AC69808950D
:10046000C798C69808951F920F920FB60F92112445
:100470008F93809166008A3088F0809165008F5F4D
:1004800080936500809163008F5F8093630010927A
:10049000660080917D00816080937D008091650081
:1004A0008A3060F0809164008F5F80936400809157
:1004B00062008F5F809362001092650080917D00E2
:1004C000826080937D0080917D00846080937D00B8
:1004D000809166008F5F809366008F910F900FBEB2
:1004E0000F901F901895B0DD8C98949A00E010E062
:1004F000C12CD12CCEE7D0E00F2EF4E7EF2EF0E0A8
:10050000FF2EF02D0F2EF4EBBF2EF02D80917D00ED
:1005100080FF06C04CDE80917D008E7F80937D0041
:1005200080917D0081FF0AC058DE80917D008D7F23
:1005300080937D00849910C00F5F1F4F083E23E019
:10054000120760F0809175008460809375001092AE
:1005500062000C2D1D2D02C00C2D1D2D888181FDEA
:1005600003C0888182FF04C08091750083FF32C080
:100570008091750081FD08C08091750080FD04C0E8
:100580008091750083FF07C1F7018081882339F0CE
:1005900040ED57E064EF71E080E0B1DE06C040ED71
:1005A00057E064EF71E081E0AADE809175008D7FF5
:1005B00080937500809175008E7F80937500809187
:1005C0007500877F80937500809175008B7F809385
:1005D0007500E1C08091750080FF4EC0809175006C
:1005E00085FD4AC08091750083FD46C080917500ED
:1005F00080618093750081E07CDE888184FD0BC082
:1006000086ED96E0EDDE813019F488818061888383
:100610001092640002C08091640080916400843272
:1006200008F4B9C0888184FFB6C086E094E0D8DEC3
:10063000813009F0B0C0809175008E7F8093750085
:10064000809175008F7E8093750088818F7E88836E
:1006500088818D7F888388818460888388818F7B6F
:10066000888388818F778883809175008B7F8093C2
:10067000750080E03EDE8FC08091750081FF73C001
:100680008091750084FD6FC08091750083FD6BC003
:1006900081E02FDE809175008062809375008881F3
:1006A00088236CF080916000909161008133984FB5
:1006B0006CF080E398EF94DE109264002AC0809181
:1006C0006000909161008133984FDCF48091750057
:1006D0008D7F80937500809175008F7D809375006C
:1006E00088818D7F888388818B7F888388818064DF
:1006F0008883809175008B7F8093750080E0F9DDA1
:1007000008C080916400823020F4C0926000D092D2
:100710006100809164008430F0F188818823DCF5E9
:1007200086E094E05DDE8130B1F5809175008D7FCB
:1007300080937500809175008F7D8093750088810E
:100740008F77888388818260888388818B7F888384
:1007500088818F7B888380E0CCDD809175008B7FE2
:100760008093750018C08091750081FD14C0809140
:10077000750080FD10C08091750083FD0CC08881DC
:1007800088234CF488818F7E888388818B7F88833F
:100790008881826088838091750082FF2EC0888165
:1007A00082FF2BC0888184FD28C08091750085FD63
:1007B00024C08091750084FD20C08091750081FD6A
:1007C0001CC08091750080FD18C080916200863940
:1007D00038F488818860888362E480E0B2DC0DC0F0
:1007E0008881877F8883809175008B7F80937500D7
:1007F00080917500826080937500888183FF0BC0B3
:10080000809162006B2D681B49E589E1B6DC62E4EA
:1008100080E097DC7BCE888186FD06C0888182FDE2
:100820000DC0888181FD0AC049E564E18AE0A5DC4C
:1008300042E464E18AE0A1DC85E407DE888184FF8C
:1008400009C042E468E289E198DC69E580E079DC8E
:1008500085E5FBDD888182FF0BC0888184FD08C0AF
:1008600069E580E06EDC62E481E06BDC85E5EDDD6E
:10087000888181FF4BCE888184FD48CE62E480E090
:1008800060DC69E581E05DDC8CE4DFDD3FCEF8947F
:02089000FFCF98
:00000001FF
